:020000040000FA
:0200000048288E
:08000800A000030EA100210E6F
:100010008300A00E200E09007F3983169B001C145C
:100020001A08831208007F3983169B0022089A0061
:100030001C158B1355309D00AA309D009C149C18F4
:100040001F288B17831208008316051083120510D2
:100050003A2083168510831285103A2008008316F3
:1000600085103A2005103F208514432005143F20B9
:1000700083120800000008003A203A2008003A20C5
:100080003A203A2008003A203A203A203A20080044
:1000900083160B3085009F010430810000308B00F7
:1000A000FF23900083120730990085010510851009
:1000B000A201A301A4011430A4000830A30024204D
:1000C00024080C20A200A20DA20D031C6B2883168D
:1000D000051483126E288316051083123C208316A4
:1000E000851483124320831685108312A30B642882
:1000F000831605148312432083168514831243202C
:100100008316851083124320831685148312851C61
:100110008728432043202F2043204320A40B5D2821
:080120004320432043205B282B
:02400E00243F4D
:10420000110007000D0017001F00250029002B00DA
:10421000330009000F001900210027002A002D009B
:0A42200035003E004B005300110072
:00000001FF
