:020000040000FA
:020000001828BE
:08000800A000030EA100210E6F
:100010008300A00E200E09000230A2000C109E30BA
:100020008F0000308E000C1C1328A20B0E28080035
:100030008316033085009F010430810000308B005F
:10004000831207309900101490109016101200308F
:10005000A300851C2C28292805182F282928051CD1
:100060003C282F28051835283228A30A851CA3030D
:10007000A30D051C3C28392805183F283C28A30A55
:10008000851CA303A30D051C4628432805184928F1
:100090004628A30A851CA303A30D051C50284D2840
:1000A000051853285028A30A851CA303A30D051C7B
:1000B0005A28572805185D285A28A30A851CA30327
:1000C000A30D051C64286128051867286428A30A65
:1000D000851CA303A30D051C6E286B280518712829
:1000E0006E28A30A851CA303051877287428051C0D
:1000F0007A287728031133302302031D8F28A301A8
:1001000003108316003085008312851005108516B4
:100110000C20851283160330850083129128A301D9
:10012000031005189428912885182928942829282F
:02400E00843FED
:00000001FF
