:020000040000FA
:020000001828BE
:040002000034003492
:08000800A000030EA100210E6F
:100010008300A00E200E09000230A2000C109E30BA
:100020008F0000308E000C1C1328A20B0E28080035
:100030008316033085009F010430810000308B005F
:10004000831207309900101490109016101200308F
:10005000A300851C2C28292805182F282928051CD1
:1000600032282F28051835283228A30A851CA30317
:10007000A30D051C3C28392805183F283C28A30A55
:10008000851CA303A30D051C4628432805184928F1
:100090004628A30A851CA303A30D051C50284D2840
:1000A000051853285028A30A851CA303A30D051C7B
:1000B0005A28572805185D285A28A30A851CA30327
:1000C000A30D051C64286128051867286428A30A65
:1000D000851CA303A30D051C6E286B280518712829
:1000E0006E28A30A851CA303051C7728742805180D
:1000F0007A287728031133302302031D9B28A3019C
:100100000310831601308500831285100518862898
:10011000051C882805188A28051C8C2883160030A1
:1001200085008312051085160C2085128316033076
:10013000850083129D28A30103100518A0289D287F
:080140008518A328A028292836
:02400E00843FED
:00000001FF
