:020000040000FA
:0400000011EF00F00C
:040008000EEF00F007
:080018000FEF00F010000000E2
:100020001000106A000E936E000E956EF26A9D909D
:10003000CD80CD92CD9ACD98C8EC00F00F0EB3ECE8
:1000400000F003EC01F04A0EB9EC00F003EC01F013
:100050006F0EB9EC00F003EC01F0720EB9EC00F099
:1000600003EC01F0640EB9EC00F003EC01F0790E42
:10007000B9EC00F003EC01F0200EB9EC00F003EC59
:1000800001F04C0EB9EC00F003EC01F0690EB9EC94
:1000900000F003EC01F06D0EB9EC00F003EC01F0A0
:1000A000610EB9EC00F003EC01F003EC01F003EC9D
:1000B00001F003EC01F0C00EB3EC00F022EC01F013
:1000C00003EC01F0750EB9EC00F003EC01F0430E07
:1000D000B9EC00F003EC01F02D0EB9EC00F003ECEC
:1000E00001F0750EB9EC00F003EC01F0530EB9EC21
:1000F00000F003EC01F0740EB9EC00F003EC01F039
:10010000610EB9EC00F003EC01F0720EB9EC00F0F6
:1001100003EC01F0740EB9EC00F003EC01F003EC19
:1001200001F003EC01F003EC01F0940EB3EC00F0ED
:1001300022EC01F02E0EB9EC00F003EC01F003EC20
:1001400001F0D40EB3EC00F022EC01F02E0EB9EC6D
:1001500000F003EC01F003EC01F0C1EC00F019EC4D
:1001600001F021EF00F08C8E8C9C8C9A8A6E8C9E14
:1001700012008C8E8C8C8C9A8A6E8C9E22EC01F0F4
:1001800012008C8E8C9C8C9A010E8A6E8C9E1200B2
:1001900010EC01F08C8E8C9C8C9A300E8A6E8C9EAA
:1001A00019EC01F08C8E8C9C8C9A300E8A6E8C9E91
:1001B00022EC01F08C8E8C9C8C9A300E8A6E8C9E78
:1001C00022EC01F08C8E8C9C8C9A380E8A6E8C9E60
:1001D00022EC01F08C8E8C9C8C9A010E8A6E8C9E87
:1001E00019EC01F08C8E8C9C8C9A0C0E8A6E8C9E75
:1001F00022EC01F08C8E8C9C8C9A060E8A6E8C9E62
:1002000022EC01F01200CD8ACD889E90000ECF6EB8
:10021000000ECE6E9EA00AEF01F0CD9ACD9812008E
:100220009E90C10ECF6E000ECE6E9EA015EF01F017
:1002300012009E90EB0ECF6E000ECE6E9EA01EEFB3
:1002400001F012009E90FE0ECF6E7F0ECE6E9EA02D
:0602500027EF01F012008F
:00000001FF
